{
  "contractName": "Array8Lib",
  "abi": [
    {
      "constant": true,
      "inputs": [
        {
          "name": "self",
          "type": "uint8[] storage"
        }
      ],
      "name": "sumElements",
      "outputs": [
        {
          "name": "sum",
          "type": "uint256"
        }
      ],
      "payable": false,
      "stateMutability": "view",
      "type": "function"
    },
    {
      "constant": true,
      "inputs": [
        {
          "name": "self",
          "type": "uint8[] storage"
        }
      ],
      "name": "getMax",
      "outputs": [
        {
          "name": "maxValue",
          "type": "uint8"
        }
      ],
      "payable": false,
      "stateMutability": "view",
      "type": "function"
    },
    {
      "constant": true,
      "inputs": [
        {
          "name": "self",
          "type": "uint8[] storage"
        }
      ],
      "name": "getMin",
      "outputs": [
        {
          "name": "minValue",
          "type": "uint8"
        }
      ],
      "payable": false,
      "stateMutability": "view",
      "type": "function"
    },
    {
      "constant": true,
      "inputs": [
        {
          "name": "self",
          "type": "uint8[] storage"
        },
        {
          "name": "value",
          "type": "uint8"
        },
        {
          "name": "isSorted",
          "type": "bool"
        }
      ],
      "name": "indexOf",
      "outputs": [
        {
          "name": "found",
          "type": "bool"
        },
        {
          "name": "index",
          "type": "uint256"
        }
      ],
      "payable": false,
      "stateMutability": "view",
      "type": "function"
    },
    {
      "constant": false,
      "inputs": [
        {
          "name": "self",
          "type": "uint8[] storage"
        }
      ],
      "name": "heapSort",
      "outputs": [],
      "payable": false,
      "stateMutability": "nonpayable",
      "type": "function"
    },
    {
      "constant": false,
      "inputs": [
        {
          "name": "self",
          "type": "uint8[] storage"
        }
      ],
      "name": "uniq",
      "outputs": [
        {
          "name": "length",
          "type": "uint256"
        }
      ],
      "payable": false,
      "stateMutability": "nonpayable",
      "type": "function"
    }
  ],
  "bytecode": "0x610be0610030600b82828239805160001a6073146000811461002057610022565bfe5b5030600052607381538281f300730000000000000000000000000000000000000000301460606040526004361061008f576000357c0100000000000000000000000000000000000000000000000000000000900463ffffffff16806319e5a88c14610094578063441815ff146100c05780635ca2d782146100f257806394d3273a14610115578063b0b77baa14610147578063c87189031461017e575b600080fd5b6100aa60048080359060200190919050506101cc565b6040518082815260200191505060405180910390f35b6100d66004808035906020019091905050610230565b604051808260ff1660ff16815260200191505060405180910390f35b81156100fd57600080fd5b61011360048080359060200190919050506102a8565b005b61012b60048080359060200190919050506107e5565b604051808260ff1660ff16815260200191505060405180910390f35b811561015257600080fd5b610168600480803590602001909190505061086f565b6040518082815260200191505060405180910390f35b6101ab600480803590602001909190803560ff1690602001909190803515159060200190919050506109cc565b60405180831515151581526020018281526020019250505060405180910390f35b60008060008360605260005b8454811015610228576020810460206060200154925060208106915060005b8281101561021157610100840493506001810190506101f7565b508260ff16925083830193506001810190506101d8565b505050919050565b6000806000836060526000925060005b84548110156102a0576020810460206060200154925060208106915060005b82811015610279576101008404935060018101905061025f565b508260ff1692508284106001811461029057610294565b8394505b50600181019050610240565b505050919050565b60008060008060008060006001888054905011156107db57600188805490500396506102d387610b22565b95508594505b6000861015156104f7578594506102ef86610b40565b93505b86841115156104de57600184019250849150878481548110151561031257fe5b90600052602060002090602091828204019190069054906101000a900460ff1660ff16888381548110151561034357fe5b90600052602060002090602091828204019190069054906101000a900460ff1660ff161015610370578391505b8683111580156103df5750878381548110151561038957fe5b90600052602060002090602091828204019190069054906101000a900460ff1660ff1688838154811015156103ba57fe5b90600052602060002090602091828204019190069054906101000a900460ff1660ff16105b156103e8578291505b848214156103fb576001870193506104d9565b878281548110151561040957fe5b90600052602060002090602091828204019190069054906101000a900460ff169050878581548110151561043957fe5b90600052602060002090602091828204019190069054906101000a900460ff16888381548110151561046757fe5b90600052602060002090602091828204019190066101000a81548160ff021916908360ff1602179055508088868154811015156104a057fe5b90600052602060002090602091828204019190066101000a81548160ff021916908360ff1602179055508194506104d685610b40565b93505b6102f2565b60008614156104ec576104f7565b6001860395506102d9565b5b60008711156107da57878781548110151561050f57fe5b90600052602060002090602091828204019190069054906101000a900460ff16905087600081548110151561054057fe5b90600052602060002090602091828204019190069054906101000a900460ff16888881548110151561056e57fe5b90600052602060002090602091828204019190066101000a81548160ff021916908360ff160217905550808860008154811015156105a857fe5b90600052602060002090602091828204019190066101000a81548160ff021916908360ff160217905550600187039650600094506105e66000610b40565b93505b86841115156107d557600184019250849150878481548110151561060957fe5b90600052602060002090602091828204019190069054906101000a900460ff1660ff16888381548110151561063a57fe5b90600052602060002090602091828204019190069054906101000a900460ff1660ff161015610667578391505b8683111580156106d65750878381548110151561068057fe5b90600052602060002090602091828204019190069054906101000a900460ff1660ff1688838154811015156106b157fe5b90600052602060002090602091828204019190069054906101000a900460ff1660ff16105b156106df578291505b848214156106f2576001870193506107d0565b878281548110151561070057fe5b90600052602060002090602091828204019190069054906101000a900460ff169050878581548110151561073057fe5b90600052602060002090602091828204019190069054906101000a900460ff16888381548110151561075e57fe5b90600052602060002090602091828204019190066101000a81548160ff021916908360ff16021790555080888681548110151561079757fe5b90600052602060002090602091828204019190066101000a81548160ff021916908360ff1602179055508194506107cd85610b40565b93505b6105e9565b6104f8565b5b5050505050505050565b60008060008360605260005b8454811015610867576020810460206060200154925060208106915060005b8281101561082a5761010084049350600181019050610810565b508260ff169250600081146001811461084257610846565b8394505b50828411600181146108575761085b565b8394505b506001810190506107f1565b505050919050565b60008060008060008091505b85805490508210156109bc576108c086878481548110151561089957fe5b90600052602060002090602091828204019190069054906101000a900460ff1660006109cc565b8094508195505050828211156109af578190505b60018680549050038110156109595785600182018154811015156108f457fe5b90600052602060002090602091828204019190069054906101000a900460ff16868281548110151561092257fe5b90600052602060002090602091828204019190066101000a81548160ff021916908360ff16021790555080806001019150506108d4565b85600187805490500381548110151561096e57fe5b90600052602060002090602091828204019190066101000a81549060ff0219169055858054809190600190036109a49190610b55565b508180600190039250505b818060010192505061087b565b8580549050945050505050919050565b6000806000806000808615610aad576001898054905003935060009250600091505b8382111515610aa8576002848301811515610a0557fe5b0492508760ff168984815481101515610a1a57fe5b90600052602060002090602091828204019190069054906101000a900460ff1660ff161415610a555760019550829450600184019150610aa3565b8760ff168984815481101515610a6757fe5b90600052602060002090602091828204019190069054906101000a900460ff1660ff161015610a9b57600183019150610aa2565b6001830393505b5b6109ee565b610b16565b600090505b8880549050811015610b15578760ff168982815481101515610ad057fe5b90600052602060002090602091828204019190069054906101000a900460ff1660ff161415610b085760019550809450888054905090505b8080600101915050610ab2565b5b50505050935093915050565b600080600183039050600281811515610b3757fe5b04915050919050565b60008060028302905060018101915050919050565b815481835581811511610b8a57601f016020900481601f01602090048360005260206000209182019101610b899190610b8f565b5b505050565b610bb191905b80821115610bad576000816000905550600101610b95565b5090565b905600a165627a7a723058204012223e5be35864ab288e021c576ff65253c5f6ed96e5f558fd201fa18e49a70029",
  "source": "pragma solidity 0.4.21;\n\n/**\n * @title Array8 Library\n * @author Modular Inc, https://modular.network\n *\n * version 1.2.0\n * Copyright (c) 2017 Modular, Inc\n * The MIT License (MIT)\n * https://github.com/Modular-Network/ethereum-libraries/blob/master/LICENSE\n *\n * The Array8 Library provides a few utility functions to work with\n * storage uint8[] types in place. Modular provides smart contract services\n * and security reviews for contract deployments in addition to working on open\n * source projects in the Ethereum community. Our purpose is to test, document,\n * and deploy reusable code onto the blockchain and improve both security and\n * usability. We also educate non-profits, schools, and other community members\n * about the application of blockchain technology.\n * For further information: modular.network\n *\n * THE SOFTWARE IS PROVIDED \"AS IS\", WITHOUT WARRANTY OF ANY KIND, EXPRESS\n * OR IMPLIED, INCLUDING BUT NOT LIMITED TO THE WARRANTIES OF\n * MERCHANTABILITY, FITNESS FOR A PARTICULAR PURPOSE AND NONINFRINGEMENT.\n * IN NO EVENT SHALL THE AUTHORS OR COPYRIGHT HOLDERS BE LIABLE FOR ANY\n * CLAIM, DAMAGES OR OTHER LIABILITY, WHETHER IN AN ACTION OF CONTRACT,\n * TORT OR OTHERWISE, ARISING FROM, OUT OF OR IN CONNECTION WITH THE\n * SOFTWARE OR THE USE OR OTHER DEALINGS IN THE SOFTWARE.\n */\n\nlibrary Array8Lib {\n\n  /// @dev Sum vector\n  /// @param self Storage array containing uint256 type variables\n  /// @return sum The sum of all elements, does not check for overflow\n  function sumElements(uint8[] storage self) public view returns(uint256 sum) {\n    uint256 term;\n    uint8 remainder;\n\n    assembly {\n      mstore(0x60,self_slot)\n\n      for { let i := 0 } lt(i, sload(self_slot)) { i := add(i, 1) } {\n        term := sload(add(sha3(0x60,0x20),div(i,32)))\n\n        remainder := mod(i,32)\n\n        for { let j := 0 } lt(j, remainder) { j := add(j, 1) } {\n          term := div(term,256)\n        }\n\n        term := and(0x00000000000000000000000000000000000000000000000000000000000000ff,term)\n        sum := add(term,sum)\n\n      }\n    }\n  }\n\n  /// @dev Returns the max value in an array.\n  /// @param self Storage array containing uint256 type variables\n  /// @return maxValue The highest value in the array\n  function getMax(uint8[] storage self) public view returns(uint8 maxValue) {\n    uint256 term;\n    uint8 remainder;\n\n    assembly {\n      mstore(0x60,self_slot)\n      maxValue := 0\n\n      for { let i := 0 } lt(i, sload(self_slot)) { i := add(i, 1) } {\n        term := sload(add(sha3(0x60,0x20),div(i,32)))\n\n        remainder := mod(i,32)\n\n        for { let j := 0 } lt(j, remainder) { j := add(j, 1) } {\n          term := div(term,256)\n        }\n\n        term := and(0x00000000000000000000000000000000000000000000000000000000000000ff,term)\n        switch lt(maxValue, term)\n        case 1 {\n          maxValue := term\n        }\n      }\n    }\n  }\n\n  /// @dev Returns the minimum value in an array.\n  /// @param self Storage array containing uint256 type variables\n  /// @return minValue The highest value in the array\n  function getMin(uint8[] storage self) public view returns(uint8 minValue) {\n    uint256 term;\n    uint8 remainder;\n\n    assembly {\n      mstore(0x60,self_slot)\n\n      for { let i := 0 } lt(i, sload(self_slot)) { i := add(i, 1) } {\n        term := sload(add(sha3(0x60,0x20),div(i,32)))\n\n        remainder := mod(i,32)\n\n        for { let j := 0 } lt(j, remainder) { j := add(j, 1) } {\n          term := div(term,256)\n        }\n\n        term := and(0x00000000000000000000000000000000000000000000000000000000000000ff,term)\n        switch eq(i,0)\n        case 1 {\n          minValue := term\n        }\n        switch gt(minValue, term)\n        case 1 {\n          minValue := term\n        }\n      }\n    }\n  }\n\n  /// @dev Finds the index of a given value in an array\n  /// @param self Storage array containing uint256 type variables\n  /// @param value The value to search for\n  /// @param isSorted True if the array is sorted, false otherwise\n  /// @return found True if the value was found, false otherwise\n  /// @return index The index of the given value, returns 0 if found is false\n  function indexOf(uint8[] storage self, uint8 value, bool isSorted)\n           public\n           view\n           returns(bool found, uint256 index) {\n    if (isSorted) {\n        uint256 high = self.length - 1;\n        uint256 mid = 0;\n        uint256 low = 0;\n        while (low <= high) {\n          mid = (low+high)/2;\n          if (self[mid] == value) {\n            found = true;\n            index = mid;\n            low = high + 1;\n          } else if (self[mid] < value) {\n            low = mid + 1;\n          } else {\n            high = mid - 1;\n          }\n        }\n    } else {\n      for (uint256 i = 0; i<self.length; i++) {\n        if (self[i] == value) {\n          found = true;\n          index = i;\n          i = self.length;\n        }\n      }\n    }\n  }\n\n  /// @dev Utility function for heapSort\n  /// @param index The index of child node\n  /// @return pI The parent node index\n  function getParentI(uint256 index) private pure returns (uint256 pI) {\n    uint256 i = index - 1;\n    pI = i/2;\n  }\n\n  /// @dev Utility function for heapSort\n  /// @param index The index of parent node\n  /// @return lcI The index of left child\n  function getLeftChildI(uint256 index) private pure returns (uint256 lcI) {\n    uint256 i = index * 2;\n    lcI = i + 1;\n  }\n\n  /// @dev Sorts given array in place\n  /// @param self Storage array containing uint256 type variables\n  function heapSort(uint8[] storage self) public {\n    if(self.length > 1){\n      uint256 end = self.length - 1;\n      uint256 start = getParentI(end);\n      uint256 root = start;\n      uint256 lChild;\n      uint256 rChild;\n      uint256 swap;\n      uint8 temp;\n      while(start >= 0){\n        root = start;\n        lChild = getLeftChildI(start);\n        while(lChild <= end){\n          rChild = lChild + 1;\n          swap = root;\n          if(self[swap] < self[lChild])\n            swap = lChild;\n          if((rChild <= end) && (self[swap]<self[rChild]))\n            swap = rChild;\n          if(swap == root)\n            lChild = end+1;\n          else {\n            temp = self[swap];\n            self[swap] = self[root];\n            self[root] = temp;\n            root = swap;\n            lChild = getLeftChildI(root);\n          }\n        }\n        if(start == 0)\n          break;\n        else\n          start = start - 1;\n      }\n      while(end > 0){\n        temp = self[end];\n        self[end] = self[0];\n        self[0] = temp;\n        end = end - 1;\n        root = 0;\n        lChild = getLeftChildI(0);\n        while(lChild <= end){\n          rChild = lChild + 1;\n          swap = root;\n          if(self[swap] < self[lChild])\n            swap = lChild;\n          if((rChild <= end) && (self[swap]<self[rChild]))\n            swap = rChild;\n          if(swap == root)\n            lChild = end + 1;\n          else {\n            temp = self[swap];\n            self[swap] = self[root];\n            self[root] = temp;\n            root = swap;\n            lChild = getLeftChildI(root);\n          }\n        }\n      }\n    }\n  }\n\n  /// @dev Removes duplicates from a given array.\n  /// @param self Storage array containing uint256 type variables\n  function uniq(uint8[] storage self) public returns (uint256 length) {\n    bool contains;\n    uint256 index;\n\n    for (uint256 i = 0; i < self.length; i++) {\n      (contains, index) = indexOf(self, self[i], false);\n\n      if (i > index) {\n        for (uint256 j = i; j < self.length - 1; j++){\n          self[j] = self[j + 1];\n        }\n\n        delete self[self.length - 1];\n        self.length--;\n        i--;\n      }\n    }\n\n    length = self.length;\n  }\n}\n",
  "sourcePath": "/Users/hackdom/Projects/ethereum-libraries-array-utils/contracts/Array8Lib.sol",
  "compiler": {
    "name": "solc",
    "version": "0.4.21+commit.dfe3193c.Emscripten.clang"
  },
  "schemaVersion": "2.0.0",
  "updatedAt": "2018-04-07T22:29:21.223Z"
}