{
  "contractName": "Array16Lib",
  "abi": [
    {
      "constant": true,
      "inputs": [
        {
          "name": "self",
          "type": "uint16[] storage"
        }
      ],
      "name": "sumElements",
      "outputs": [
        {
          "name": "sum",
          "type": "uint256"
        }
      ],
      "payable": false,
      "stateMutability": "view",
      "type": "function"
    },
    {
      "constant": true,
      "inputs": [
        {
          "name": "self",
          "type": "uint16[] storage"
        }
      ],
      "name": "getMax",
      "outputs": [
        {
          "name": "maxValue",
          "type": "uint16"
        }
      ],
      "payable": false,
      "stateMutability": "view",
      "type": "function"
    },
    {
      "constant": true,
      "inputs": [
        {
          "name": "self",
          "type": "uint16[] storage"
        }
      ],
      "name": "getMin",
      "outputs": [
        {
          "name": "minValue",
          "type": "uint16"
        }
      ],
      "payable": false,
      "stateMutability": "view",
      "type": "function"
    },
    {
      "constant": true,
      "inputs": [
        {
          "name": "self",
          "type": "uint16[] storage"
        },
        {
          "name": "value",
          "type": "uint16"
        },
        {
          "name": "isSorted",
          "type": "bool"
        }
      ],
      "name": "indexOf",
      "outputs": [
        {
          "name": "found",
          "type": "bool"
        },
        {
          "name": "index",
          "type": "uint256"
        }
      ],
      "payable": false,
      "stateMutability": "view",
      "type": "function"
    },
    {
      "constant": false,
      "inputs": [
        {
          "name": "self",
          "type": "uint16[] storage"
        }
      ],
      "name": "heapSort",
      "outputs": [],
      "payable": false,
      "stateMutability": "nonpayable",
      "type": "function"
    },
    {
      "constant": false,
      "inputs": [
        {
          "name": "self",
          "type": "uint16[] storage"
        }
      ],
      "name": "uniq",
      "outputs": [
        {
          "name": "length",
          "type": "uint256"
        }
      ],
      "payable": false,
      "stateMutability": "nonpayable",
      "type": "function"
    }
  ],
  "bytecode": "0x610c6c610030600b82828239805160001a6073146000811461002057610022565bfe5b5030600052607381538281f300730000000000000000000000000000000000000000301460606040526004361061008f576000357c0100000000000000000000000000000000000000000000000000000000900463ffffffff16806313b704fe146100945780632b35407d146100b7578063b1df4ec5146100e3578063c59d3b9c14610132578063e23f74ea14610166578063e855c4c81461019d575b600080fd5b811561009f57600080fd5b6100b560048080359060200190919050506101d1565b005b6100cd600480803590602001909190505061076c565b6040518082815260200191505060405180910390f35b610111600480803590602001909190803561ffff1690602001909190803515159060200190919050506107d2565b60405180831515151581526020018281526020019250505060405180910390f35b610148600480803590602001909190505061093a565b604051808261ffff1661ffff16815260200191505060405180910390f35b811561017157600080fd5b61018760048080359060200190919050506109b4565b6040518082815260200191505060405180910390f35b6101b36004808035906020019091905050610b22565b604051808261ffff1661ffff16815260200191505060405180910390f35b600080600080600080600060018880549050111561076257600188805490500396506101fc87610bae565b95508594505b6000861015156104465785945061021886610bcc565b93505b868411151561042d57600184019250849150878481548110151561023b57fe5b90600052602060002090601091828204019190066002029054906101000a900461ffff1661ffff16888381548110151561027157fe5b90600052602060002090601091828204019190066002029054906101000a900461ffff1661ffff1610156102a3578391505b86831115801561031c575087838154811015156102bc57fe5b90600052602060002090601091828204019190066002029054906101000a900461ffff1661ffff1688838154811015156102f257fe5b90600052602060002090601091828204019190066002029054906101000a900461ffff1661ffff16105b15610325578291505b8482141561033857600187019350610428565b878281548110151561034657fe5b90600052602060002090601091828204019190066002029054906101000a900461ffff169050878581548110151561037a57fe5b90600052602060002090601091828204019190066002029054906101000a900461ffff1688838154811015156103ac57fe5b90600052602060002090601091828204019190066002026101000a81548161ffff021916908361ffff1602179055508088868154811015156103ea57fe5b90600052602060002090601091828204019190066002026101000a81548161ffff021916908361ffff16021790555081945061042585610bcc565b93505b61021b565b600086141561043b57610446565b600186039550610202565b5b600087111561076157878781548110151561045e57fe5b90600052602060002090601091828204019190066002029054906101000a900461ffff16905087600081548110151561049357fe5b90600052602060002090601091828204019190066002029054906101000a900461ffff1688888154811015156104c557fe5b90600052602060002090601091828204019190066002026101000a81548161ffff021916908361ffff1602179055508088600081548110151561050457fe5b90600052602060002090601091828204019190066002026101000a81548161ffff021916908361ffff160217905550600187039650600094506105476000610bcc565b93505b868411151561075c57600184019250849150878481548110151561056a57fe5b90600052602060002090601091828204019190066002029054906101000a900461ffff1661ffff1688838154811015156105a057fe5b90600052602060002090601091828204019190066002029054906101000a900461ffff1661ffff1610156105d2578391505b86831115801561064b575087838154811015156105eb57fe5b90600052602060002090601091828204019190066002029054906101000a900461ffff1661ffff16888381548110151561062157fe5b90600052602060002090601091828204019190066002029054906101000a900461ffff1661ffff16105b15610654578291505b8482141561066757600187019350610757565b878281548110151561067557fe5b90600052602060002090601091828204019190066002029054906101000a900461ffff16905087858154811015156106a957fe5b90600052602060002090601091828204019190066002029054906101000a900461ffff1688838154811015156106db57fe5b90600052602060002090601091828204019190066002026101000a81548161ffff021916908361ffff16021790555080888681548110151561071957fe5b90600052602060002090601091828204019190066002026101000a81548161ffff021916908361ffff16021790555081945061075485610bcc565b93505b61054a565b610447565b5b5050505050505050565b60008060008360605260005b84548110156107ca576010810460206060200154925060108106915060005b828110156107b2576201000084049350600181019050610797565b508261ffff1692508383019350600181019050610778565b505050919050565b60008060008060008086156108bf576001898054905003935060009250600091505b83821115156108ba57600284830181151561080b57fe5b0492508761ffff16898481548110151561082157fe5b90600052602060002090601091828204019190066002029054906101000a900461ffff1661ffff16141561086157600195508294506001840191506108b5565b8761ffff16898481548110151561087457fe5b90600052602060002090601091828204019190066002029054906101000a900461ffff1661ffff1610156108ad576001830191506108b4565b6001830393505b5b6107f4565b61092e565b600090505b888054905081101561092d578761ffff1689828154811015156108e357fe5b90600052602060002090601091828204019190066002029054906101000a900461ffff1661ffff1614156109205760019550809450888054905090505b80806001019150506108c4565b5b50505050935093915050565b6000806000836060526000925060005b84548110156109ac576010810460206060200154925060108106915060005b82811015610984576201000084049350600181019050610969565b508261ffff1692508284106001811461099c576109a0565b8394505b5060018101905061094a565b505050919050565b60008060008060008091505b8580549050821015610b1257610a098687848154811015156109de57fe5b90600052602060002090601091828204019190066002029054906101000a900461ffff1660006107d2565b809450819550505082821115610b05578190505b6001868054905003811015610aab578560018201815481101515610a3d57fe5b90600052602060002090601091828204019190066002029054906101000a900461ffff168682815481101515610a6f57fe5b90600052602060002090601091828204019190066002026101000a81548161ffff021916908361ffff1602179055508080600101915050610a1d565b856001878054905003815481101515610ac057fe5b90600052602060002090601091828204019190066002026101000a81549061ffff021916905585805480919060019003610afa9190610be1565b508180600190039250505b81806001019250506109c0565b8580549050945050505050919050565b60008060008360605260005b8454811015610ba6576010810460206060200154925060108106915060005b82811015610b68576201000084049350600181019050610b4d565b508261ffff1692506000811460018114610b8157610b85565b8394505b5082841160018114610b9657610b9a565b8394505b50600181019050610b2e565b505050919050565b600080600183039050600281811515610bc357fe5b04915050919050565b60008060028302905060018101915050919050565b815481835581811511610c1657600f016010900481600f01601090048360005260206000209182019101610c159190610c1b565b5b505050565b610c3d91905b80821115610c39576000816000905550600101610c21565b5090565b905600a165627a7a72305820d322be6917d889a8232eeab9e05aeedbefa5669b2ede63cd3c6df2edb4d765030029",
  "source": "pragma solidity 0.4.21;\n\n/**\n * @title Array16 Library\n * @author Modular Inc, https://modular.network\n *\n * version 1.2.0\n * Copyright (c) 2017 Modular, Inc\n * The MIT License (MIT)\n * https://github.com/Modular-Network/ethereum-libraries/blob/master/LICENSE\n *\n * The Array16 Library provides a few utility functions to work with\n * storage uint16[] types in place. Modular provides smart contract services\n * and security reviews for contract deployments in addition to working on open\n * source projects in the Ethereum community. Our purpose is to test, document,\n * and deploy reusable code onto the blockchain and improve both security and\n * usability. We also educate non-profits, schools, and other community members\n * about the application of blockchain technology.\n * For further information: modular.network\n *\n * THE SOFTWARE IS PROVIDED \"AS IS\", WITHOUT WARRANTY OF ANY KIND, EXPRESS\n * OR IMPLIED, INCLUDING BUT NOT LIMITED TO THE WARRANTIES OF\n * MERCHANTABILITY, FITNESS FOR A PARTICULAR PURPOSE AND NONINFRINGEMENT.\n * IN NO EVENT SHALL THE AUTHORS OR COPYRIGHT HOLDERS BE LIABLE FOR ANY\n * CLAIM, DAMAGES OR OTHER LIABILITY, WHETHER IN AN ACTION OF CONTRACT,\n * TORT OR OTHERWISE, ARISING FROM, OUT OF OR IN CONNECTION WITH THE\n * SOFTWARE OR THE USE OR OTHER DEALINGS IN THE SOFTWARE.\n */\n\nlibrary Array16Lib {\n\n  /// @dev Sum vector\n  /// @param self Storage array containing uint256 type variables\n  /// @return sum The sum of all elements, does not check for overflow\n  function sumElements(uint16[] storage self) public view returns(uint256 sum) {\n    uint256 term;\n    uint8 remainder;\n\n    assembly {\n      mstore(0x60,self_slot)\n\n      for { let i := 0 } lt(i, sload(self_slot)) { i := add(i, 1) } {\n        term := sload(add(sha3(0x60,0x20),div(i,16)))\n\n        remainder := mod(i,16)\n\n        for { let j := 0 } lt(j, remainder) { j := add(j, 1) } {\n          term := div(term,65536)\n        }\n\n        term := and(0x000000000000000000000000000000000000000000000000000000000000ffff,term)\n        sum := add(term,sum)\n\n      }\n    }\n  }\n\n  /// @dev Returns the max value in an array.\n  /// @param self Storage array containing uint256 type variables\n  /// @return maxValue The highest value in the array\n  function getMax(uint16[] storage self) public view returns(uint16 maxValue) {\n    uint256 term;\n    uint8 remainder;\n\n    assembly {\n      mstore(0x60,self_slot)\n      maxValue := 0\n\n      for { let i := 0 } lt(i, sload(self_slot)) { i := add(i, 1) } {\n        term := sload(add(sha3(0x60,0x20),div(i,16)))\n\n        remainder := mod(i,16)\n\n        for { let j := 0 } lt(j, remainder) { j := add(j, 1) } {\n          term := div(term,65536)\n        }\n\n        term := and(0x000000000000000000000000000000000000000000000000000000000000ffff,term)\n        switch lt(maxValue, term)\n        case 1 {\n          maxValue := term\n        }\n      }\n    }\n  }\n\n  /// @dev Returns the minimum value in an array.\n  /// @param self Storage array containing uint256 type variables\n  /// @return minValue The highest value in the array\n  function getMin(uint16[] storage self) public view returns(uint16 minValue) {\n    uint256 term;\n    uint8 remainder;\n\n    assembly {\n      mstore(0x60,self_slot)\n\n      for { let i := 0 } lt(i, sload(self_slot)) { i := add(i, 1) } {\n        term := sload(add(sha3(0x60,0x20),div(i,16)))\n\n        remainder := mod(i,16)\n\n        for { let j := 0 } lt(j, remainder) { j := add(j, 1) } {\n          term := div(term,65536)\n        }\n\n        term := and(0x000000000000000000000000000000000000000000000000000000000000ffff,term)\n\n        switch eq(i,0)\n        case 1 {\n          minValue := term\n        }\n        switch gt(minValue, term)\n        case 1 {\n          minValue := term\n        }\n      }\n    }\n  }\n\n  /// @dev Finds the index of a given value in an array\n  /// @param self Storage array containing uint256 type variables\n  /// @param value The value to search for\n  /// @param isSorted True if the array is sorted, false otherwise\n  /// @return found True if the value was found, false otherwise\n  /// @return index The index of the given value, returns 0 if found is false\n  function indexOf(uint16[] storage self, uint16 value, bool isSorted)\n           public\n           view\n           returns(bool found, uint256 index) {\n    if (isSorted) {\n        uint256 high = self.length - 1;\n        uint256 mid = 0;\n        uint256 low = 0;\n        while (low <= high) {\n          mid = (low+high)/2;\n          if (self[mid] == value) {\n            found = true;\n            index = mid;\n            low = high + 1;\n          } else if (self[mid] < value) {\n            low = mid + 1;\n          } else {\n            high = mid - 1;\n          }\n        }\n    } else {\n      for (uint256 i = 0; i<self.length; i++) {\n        if (self[i] == value) {\n          found = true;\n          index = i;\n          i = self.length;\n        }\n      }\n    }\n  }\n\n  /// @dev Utility function for heapSort\n  /// @param index The index of child node\n  /// @return pI The parent node index\n  function getParentI(uint256 index) private pure returns (uint256 pI) {\n    uint256 i = index - 1;\n    pI = i/2;\n  }\n\n  /// @dev Utility function for heapSort\n  /// @param index The index of parent node\n  /// @return lcI The index of left child\n  function getLeftChildI(uint256 index) private pure returns (uint256 lcI) {\n    uint256 i = index * 2;\n    lcI = i + 1;\n  }\n\n  /// @dev Sorts given array in place\n  /// @param self Storage array containing uint256 type variables\n  function heapSort(uint16[] storage self) public {\n    if(self.length > 1){\n      uint256 end = self.length - 1;\n      uint256 start = getParentI(end);\n      uint256 root = start;\n      uint256 lChild;\n      uint256 rChild;\n      uint256 swap;\n      uint16 temp;\n      while(start >= 0){\n        root = start;\n        lChild = getLeftChildI(start);\n        while(lChild <= end){\n          rChild = lChild + 1;\n          swap = root;\n          if(self[swap] < self[lChild])\n            swap = lChild;\n          if((rChild <= end) && (self[swap]<self[rChild]))\n            swap = rChild;\n          if(swap == root)\n            lChild = end+1;\n          else {\n            temp = self[swap];\n            self[swap] = self[root];\n            self[root] = temp;\n            root = swap;\n            lChild = getLeftChildI(root);\n          }\n        }\n        if(start == 0)\n          break;\n        else\n          start = start - 1;\n      }\n      while(end > 0){\n        temp = self[end];\n        self[end] = self[0];\n        self[0] = temp;\n        end = end - 1;\n        root = 0;\n        lChild = getLeftChildI(0);\n        while(lChild <= end){\n          rChild = lChild + 1;\n          swap = root;\n          if(self[swap] < self[lChild])\n            swap = lChild;\n          if((rChild <= end) && (self[swap]<self[rChild]))\n            swap = rChild;\n          if(swap == root)\n            lChild = end + 1;\n          else {\n            temp = self[swap];\n            self[swap] = self[root];\n            self[root] = temp;\n            root = swap;\n            lChild = getLeftChildI(root);\n          }\n        }\n      }\n    }\n  }\n\n  /// @dev Removes duplicates from a given array.\n  /// @param self Storage array containing uint256 type variables\n  function uniq(uint16[] storage self) public returns (uint256 length) {\n    bool contains;\n    uint256 index;\n\n    for (uint256 i = 0; i < self.length; i++) {\n      (contains, index) = indexOf(self, self[i], false);\n\n      if (i > index) {\n        for (uint256 j = i; j < self.length - 1; j++){\n          self[j] = self[j + 1];\n        }\n\n        delete self[self.length - 1];\n        self.length--;\n        i--;\n      }\n    }\n\n    length = self.length;\n  }\n}\n",
  "sourcePath": "/Users/hackdom/Projects/ethereum-libraries-array-utils/contracts/Array16Lib.sol",
  "compiler": {
    "name": "solc",
    "version": "0.4.21+commit.dfe3193c.Emscripten.clang"
  },
  "schemaVersion": "2.0.0",
  "updatedAt": "2018-04-07T22:29:21.214Z"
}