{
  "contractName": "Array128Lib",
  "abi": [
    {
      "constant": true,
      "inputs": [
        {
          "name": "self",
          "type": "uint128[] storage"
        }
      ],
      "name": "sumElements",
      "outputs": [
        {
          "name": "sum",
          "type": "uint256"
        }
      ],
      "payable": false,
      "stateMutability": "view",
      "type": "function"
    },
    {
      "constant": true,
      "inputs": [
        {
          "name": "self",
          "type": "uint128[] storage"
        }
      ],
      "name": "getMax",
      "outputs": [
        {
          "name": "maxValue",
          "type": "uint128"
        }
      ],
      "payable": false,
      "stateMutability": "view",
      "type": "function"
    },
    {
      "constant": true,
      "inputs": [
        {
          "name": "self",
          "type": "uint128[] storage"
        }
      ],
      "name": "getMin",
      "outputs": [
        {
          "name": "minValue",
          "type": "uint128"
        }
      ],
      "payable": false,
      "stateMutability": "view",
      "type": "function"
    },
    {
      "constant": true,
      "inputs": [
        {
          "name": "self",
          "type": "uint128[] storage"
        },
        {
          "name": "value",
          "type": "uint128"
        },
        {
          "name": "isSorted",
          "type": "bool"
        }
      ],
      "name": "indexOf",
      "outputs": [
        {
          "name": "found",
          "type": "bool"
        },
        {
          "name": "index",
          "type": "uint256"
        }
      ],
      "payable": false,
      "stateMutability": "view",
      "type": "function"
    },
    {
      "constant": false,
      "inputs": [
        {
          "name": "self",
          "type": "uint128[] storage"
        }
      ],
      "name": "heapSort",
      "outputs": [],
      "payable": false,
      "stateMutability": "nonpayable",
      "type": "function"
    },
    {
      "constant": false,
      "inputs": [
        {
          "name": "self",
          "type": "uint128[] storage"
        }
      ],
      "name": "uniq",
      "outputs": [
        {
          "name": "length",
          "type": "uint256"
        }
      ],
      "payable": false,
      "stateMutability": "nonpayable",
      "type": "function"
    }
  ],
  "bytecode": "0x610f30610030600b82828239805160001a6073146000811461002057610022565bfe5b5030600052607381538281f300730000000000000000000000000000000000000000301460606040526004361061008f576000357c0100000000000000000000000000000000000000000000000000000000900463ffffffff16806301e23a221461009457806339342b7b146100f15780633ab520171461012857806364a1923c14610154578063a609b67714610177578063a7b5b552146101c7575b600080fd5b6100d060048080359060200190919080356fffffffffffffffffffffffffffffffff169060200190919080351515906020019091905050610217565b60405180831515151581526020018281526020019250505060405180910390f35b81156100fc57600080fd5b61011260048080359060200190919050506103a2565b6040518082815260200191505060405180910390f35b61013e6004808035906020019091905050610556565b6040518082815260200191505060405180910390f35b811561015f57600080fd5b61017560048080359060200190919050506105cf565b005b61018d6004808035906020019091905050610d46565b60405180826fffffffffffffffffffffffffffffffff166fffffffffffffffffffffffffffffffff16815260200191505060405180910390f35b6101dd6004808035906020019091905050610de5565b60405180826fffffffffffffffffffffffffffffffff166fffffffffffffffffffffffffffffffff16815260200191505060405180910390f35b6000806000856060528360018114610236576000811461030b57610398565b60018754036000805b828111151561030357600283820104915060028204602060602001549450600282066001811461026e57610291565b60005b600481101561028f5764010000000087049650600181019050610271565b505b506fffffffffffffffffffffffffffffffff85169450888510600181146102bf57600081146102ca576102fd565b6001830191506102fd565b898611600181146102e257600081146102ed576102fb565b6001840394506102fb565b600198508397506001850192505b505b5061023f565b505050610398565b60005b87548110156103965760028104602060602001549250600281066001811461033557610358565b60005b60048110156103565764010000000085049450600181019050610338565b505b506fffffffffffffffffffffffffffffffff831692508683146001811461037e5761038a565b60019550819450885491505b5060018101905061030e565b505b5050935093915050565b60008060008060008091505b8580549050821015610546576104058687848154811015156103cc57fe5b90600052602060002090600291828204019190066010029054906101000a90046fffffffffffffffffffffffffffffffff166000610217565b809450819550505082821115610539578190505b60018680549050038110156104d157856001820181548110151561043957fe5b90600052602060002090600291828204019190066010029054906101000a90046fffffffffffffffffffffffffffffffff16868281548110151561047957fe5b90600052602060002090600291828204019190066010026101000a8154816fffffffffffffffffffffffffffffffff02191690836fffffffffffffffffffffffffffffffff1602179055508080600101915050610419565b8560018780549050038154811015156104e657fe5b90600052602060002090600291828204019190066010026101000a8154906fffffffffffffffffffffffffffffffff02191690558580548091906001900361052e9190610ea5565b508180600190039250505b81806001019250506103ae565b8580549050945050505050919050565b60008060008360605260005b84548110156105c7576002810460206060200154925060028106915060005b600483028110156105a15764010000000084049350600181019050610581565b50826fffffffffffffffffffffffffffffffff1692508383019350600181019050610562565b505050919050565b6000806000806000806000600188805490501115610d3c57600188805490500396506105fa87610e72565b95508594505b6000861015156109085785945061061686610e90565b93505b86841115156108ef57600184019250849150878481548110151561063957fe5b90600052602060002090600291828204019190066010029054906101000a90046fffffffffffffffffffffffffffffffff166fffffffffffffffffffffffffffffffff16888381548110151561068b57fe5b90600052602060002090600291828204019190066010029054906101000a90046fffffffffffffffffffffffffffffffff166fffffffffffffffffffffffffffffffff1610156106d9578391505b86831115801561078a575087838154811015156106f257fe5b90600052602060002090600291828204019190066010029054906101000a90046fffffffffffffffffffffffffffffffff166fffffffffffffffffffffffffffffffff16888381548110151561074457fe5b90600052602060002090600291828204019190066010029054906101000a90046fffffffffffffffffffffffffffffffff166fffffffffffffffffffffffffffffffff16105b15610793578291505b848214156107a6576001870193506108ea565b87828154811015156107b457fe5b90600052602060002090600291828204019190066010029054906101000a90046fffffffffffffffffffffffffffffffff16905087858154811015156107f657fe5b90600052602060002090600291828204019190066010029054906101000a90046fffffffffffffffffffffffffffffffff16888381548110151561083657fe5b90600052602060002090600291828204019190066010026101000a8154816fffffffffffffffffffffffffffffffff02191690836fffffffffffffffffffffffffffffffff16021790555080888681548110151561089057fe5b90600052602060002090600291828204019190066010026101000a8154816fffffffffffffffffffffffffffffffff02191690836fffffffffffffffffffffffffffffffff1602179055508194506108e785610e90565b93505b610619565b60008614156108fd57610908565b600186039550610600565b5b6000871115610d3b57878781548110151561092057fe5b90600052602060002090600291828204019190066010029054906101000a90046fffffffffffffffffffffffffffffffff16905087600081548110151561096357fe5b90600052602060002090600291828204019190066010029054906101000a90046fffffffffffffffffffffffffffffffff1688888154811015156109a357fe5b90600052602060002090600291828204019190066010026101000a8154816fffffffffffffffffffffffffffffffff02191690836fffffffffffffffffffffffffffffffff160217905550808860008154811015156109fe57fe5b90600052602060002090600291828204019190066010026101000a8154816fffffffffffffffffffffffffffffffff02191690836fffffffffffffffffffffffffffffffff16021790555060018703965060009450610a5d6000610e90565b93505b8684111515610d36576001840192508491508784815481101515610a8057fe5b90600052602060002090600291828204019190066010029054906101000a90046fffffffffffffffffffffffffffffffff166fffffffffffffffffffffffffffffffff168883815481101515610ad257fe5b90600052602060002090600291828204019190066010029054906101000a90046fffffffffffffffffffffffffffffffff166fffffffffffffffffffffffffffffffff161015610b20578391505b868311158015610bd157508783815481101515610b3957fe5b90600052602060002090600291828204019190066010029054906101000a90046fffffffffffffffffffffffffffffffff166fffffffffffffffffffffffffffffffff168883815481101515610b8b57fe5b90600052602060002090600291828204019190066010029054906101000a90046fffffffffffffffffffffffffffffffff166fffffffffffffffffffffffffffffffff16105b15610bda578291505b84821415610bed57600187019350610d31565b8782815481101515610bfb57fe5b90600052602060002090600291828204019190066010029054906101000a90046fffffffffffffffffffffffffffffffff1690508785815481101515610c3d57fe5b90600052602060002090600291828204019190066010029054906101000a90046fffffffffffffffffffffffffffffffff168883815481101515610c7d57fe5b90600052602060002090600291828204019190066010026101000a8154816fffffffffffffffffffffffffffffffff02191690836fffffffffffffffffffffffffffffffff160217905550808886815481101515610cd757fe5b90600052602060002090600291828204019190066010026101000a8154816fffffffffffffffffffffffffffffffff02191690836fffffffffffffffffffffffffffffffff160217905550819450610d2e85610e90565b93505b610a60565b610909565b5b5050505050505050565b60008060008360605260005b8454811015610ddd576002810460206060200154925060028106915060005b60048302811015610d915764010000000084049350600181019050610d71565b50826fffffffffffffffffffffffffffffffff1692506000811460018114610db857610dbc565b8394505b5082841160018114610dcd57610dd1565b8394505b50600181019050610d52565b505050919050565b6000806000836060526000925060005b8454811015610e6a576002810460206060200154925060028106915060005b60048302811015610e345764010000000084049350600181019050610e14565b50826fffffffffffffffffffffffffffffffff16925082841060018114610e5a57610e5e565b8394505b50600181019050610df5565b505050919050565b600080600183039050600281811515610e8757fe5b04915050919050565b60008060028302905060018101915050919050565b815481835581811511610eda576001016002900481600101600290048360005260206000209182019101610ed99190610edf565b5b505050565b610f0191905b80821115610efd576000816000905550600101610ee5565b5090565b905600a165627a7a72305820e66d318418f9e8f3bb11b8ffa5d57697c0293a17d8dd15e8549f0a2f7fe25f250029",
  "source": "pragma solidity 0.4.21;\n\n/**\n * @title Array128 Library\n * @author Modular Inc, https://modular.network\n *\n * version 1.2.0\n * Copyright (c) 2017 Modular, Inc\n * The MIT License (MIT)\n * https://github.com/Modular-Network/ethereum-libraries/blob/master/LICENSE\n *\n *  The Array128 Library provides a few utility functions to work with\n * storage uint128[] types in place. Modular provides smart contract services\n * and security reviews for contract deployments in addition to working on open\n * source projects in the Ethereum community. Our purpose is to test, document,\n * and deploy reusable code onto the blockchain and improve both security and\n * usability. We also educate non-profits, schools, and other community members\n * about the application of blockchain technology.\n * For further information: modular.network\n *\n * THE SOFTWARE IS PROVIDED \"AS IS\", WITHOUT WARRANTY OF ANY KIND, EXPRESS\n * OR IMPLIED, INCLUDING BUT NOT LIMITED TO THE WARRANTIES OF\n * MERCHANTABILITY, FITNESS FOR A PARTICULAR PURPOSE AND NONINFRINGEMENT.\n * IN NO EVENT SHALL THE AUTHORS OR COPYRIGHT HOLDERS BE LIABLE FOR ANY\n * CLAIM, DAMAGES OR OTHER LIABILITY, WHETHER IN AN ACTION OF CONTRACT,\n * TORT OR OTHERWISE, ARISING FROM, OUT OF OR IN CONNECTION WITH THE\n * SOFTWARE OR THE USE OR OTHER DEALINGS IN THE SOFTWARE.\n */\n\nlibrary Array128Lib {\n\n  /// @dev Sum vector\n  /// @param self Storage array containing uint256 type variables\n  /// @return sum The sum of all elements, does not check for overflow\n  function sumElements(uint128[] storage self) public view returns(uint256 sum) {\n    uint256 term;\n    uint8 remainder;\n\n    assembly {\n      mstore(0x60,self_slot)\n\n      for { let i := 0 } lt(i, sload(self_slot)) { i := add(i, 1) } {\n        term := sload(add(sha3(0x60,0x20),div(i,2)))\n\n        remainder := mod(i,2)\n\n        for { let j := 0 } lt(j, mul(remainder, 4)) { j := add(j, 1) } {\n          term := div(term,4294967296)\n        }\n\n        term := and(0x00000000000000000000000000000000ffffffffffffffffffffffffffffffff,term)\n        sum := add(term,sum)\n\n      }\n    }\n  }\n\n  /// @dev Returns the max value in an array.\n  /// @param self Storage array containing uint256 type variables\n  /// @return maxValue The highest value in the array\n  function getMax(uint128[] storage self) public view returns(uint128 maxValue) {\n    uint256 term;\n    uint8 remainder;\n\n    assembly {\n      mstore(0x60,self_slot)\n      maxValue := 0\n\n      for { let i := 0 } lt(i, sload(self_slot)) { i := add(i, 1) } {\n        term := sload(add(sha3(0x60,0x20),div(i,2)))\n\n        remainder := mod(i,2)\n\n        for { let j := 0 } lt(j, mul(remainder, 4)) { j := add(j, 1) } {\n          term := div(term,4294967296)\n        }\n\n        term := and(0x00000000000000000000000000000000ffffffffffffffffffffffffffffffff,term)\n        switch lt(maxValue, term)\n        case 1 {\n          maxValue := term\n        }\n      }\n    }\n  }\n\n  /// @dev Returns the minimum value in an array.\n  /// @param self Storage array containing uint256 type variables\n  /// @return minValue The highest value in the array\n  function getMin(uint128[] storage self) public view returns(uint128 minValue) {\n    uint256 term;\n    uint8 remainder;\n\n    assembly {\n      mstore(0x60,self_slot)\n\n      for { let i := 0 } lt(i, sload(self_slot)) { i := add(i, 1) } {\n        term := sload(add(sha3(0x60,0x20),div(i,2)))\n\n        remainder := mod(i,2)\n\n        for { let j := 0 } lt(j, mul(remainder, 4)) { j := add(j, 1) } {\n          term := div(term,4294967296)\n        }\n\n        term := and(0x00000000000000000000000000000000ffffffffffffffffffffffffffffffff,term)\n        switch eq(i,0)\n        case 1 {\n          minValue := term\n        }\n        switch gt(minValue, term)\n        case 1 {\n          minValue := term\n        }\n      }\n    }\n  }\n\n  /// @dev Finds the index of a given value in an array\n  /// @param self Storage array containing uint256 type variables\n  /// @param value The value to search for\n  /// @param isSorted True if the array is sorted, false otherwise\n  /// @return found True if the value was found, false otherwise\n  /// @return index The index of the given value, returns 0 if found is false\n  function indexOf(uint128[] storage self, uint128 value, bool isSorted)\n           public\n           view\n           returns(bool found, uint256 index) {\n    uint256 term;\n    assembly{\n      mstore(0x60,self_slot)\n      switch isSorted\n      case 1 {\n        let high := sub(sload(self_slot),1)\n        let mid := 0\n        let low := 0\n        for { } iszero(gt(low, high)) { } {\n          mid := div(add(low,high),2)\n          term := sload(add(sha3(0x60,0x20),div(mid,2)))\n\n          switch mod(mid,2)\n          case 1 {\n            for { let j := 0 } lt(j, 4) { j := add(j, 1) } {\n              term := div(term,4294967296)\n            }\n          }\n\n          term := and(term,0x00000000000000000000000000000000ffffffffffffffffffffffffffffffff)\n\n          switch lt(term,value)\n          case 1 {\n             low := add(mid,1)\n          }\n          case 0 {\n            switch gt(term,value)\n            case 1 {\n              high := sub(mid,1)\n            }\n            case 0 {\n              found := 1\n              index := mid\n              low := add(high,1)\n            }\n          }\n        }\n      }\n      case 0 {\n        for { let i := 0 } lt(i, sload(self_slot)) { i := add(i, 1) } {\n          term := sload(add(sha3(0x60,0x20),div(i,2)))\n          switch mod(i,2)\n          case 1 {\n            for { let j := 0 } lt(j, 4) { j := add(j, 1) } {\n              term := div(term,4294967296)\n            }\n          }\n\n          term := and(term,0x00000000000000000000000000000000ffffffffffffffffffffffffffffffff)\n\n          switch eq(term, value)\n          case 1 {\n            found := 1\n            index := i\n            i := sload(self_slot)\n          }\n        }\n      }\n    }\n  }\n\n  /// @dev Utility function for heapSort\n  /// @param index The index of child node\n  /// @return pI The parent node index\n  function getParentI(uint256 index) private pure returns (uint256 pI) {\n    uint256 i = index - 1;\n    pI = i/2;\n  }\n\n  /// @dev Utility function for heapSort\n  /// @param index The index of parent node\n  /// @return lcI The index of left child\n  function getLeftChildI(uint256 index) private pure returns (uint256 lcI) {\n    uint256 i = index * 2;\n    lcI = i + 1;\n  }\n\n  /// @dev Sorts given array in place\n  /// @param self Storage array containing uint256 type variables\n  function heapSort(uint128[] storage self) public {\n    if(self.length > 1){\n      uint256 end = self.length - 1;\n      uint256 start = getParentI(end);\n      uint256 root = start;\n      uint256 lChild;\n      uint256 rChild;\n      uint256 swap;\n      uint128 temp;\n      while(start >= 0){\n        root = start;\n        lChild = getLeftChildI(start);\n        while(lChild <= end){\n          rChild = lChild + 1;\n          swap = root;\n          if(self[swap] < self[lChild])\n            swap = lChild;\n          if((rChild <= end) && (self[swap]<self[rChild]))\n            swap = rChild;\n          if(swap == root)\n            lChild = end+1;\n          else {\n            temp = self[swap];\n            self[swap] = self[root];\n            self[root] = temp;\n            root = swap;\n            lChild = getLeftChildI(root);\n          }\n        }\n        if(start == 0)\n          break;\n        else\n          start = start - 1;\n      }\n      while(end > 0){\n        temp = self[end];\n        self[end] = self[0];\n        self[0] = temp;\n        end = end - 1;\n        root = 0;\n        lChild = getLeftChildI(0);\n        while(lChild <= end){\n          rChild = lChild + 1;\n          swap = root;\n          if(self[swap] < self[lChild])\n            swap = lChild;\n          if((rChild <= end) && (self[swap]<self[rChild]))\n            swap = rChild;\n          if(swap == root)\n            lChild = end + 1;\n          else {\n            temp = self[swap];\n            self[swap] = self[root];\n            self[root] = temp;\n            root = swap;\n            lChild = getLeftChildI(root);\n          }\n        }\n      }\n    }\n  }\n\n  /// @dev Removes duplicates from a given array.\n  /// @param self Storage array containing uint256 type variables\n  function uniq(uint128[] storage self) public returns (uint256 length) {\n    bool contains;\n    uint256 index;\n\n    for (uint256 i = 0; i < self.length; i++) {\n      (contains, index) = indexOf(self, self[i], false);\n\n      if (i > index) {\n        for (uint256 j = i; j < self.length - 1; j++){\n          self[j] = self[j + 1];\n        }\n\n        delete self[self.length - 1];\n        self.length--;\n        i--;\n      }\n    }\n\n    length = self.length;\n  }\n}\n",
  "sourcePath": "/Users/hackdom/Projects/ethereum-libraries-array-utils/contracts/Array128Lib.sol",
  "compiler": {
    "name": "solc",
    "version": "0.4.21+commit.dfe3193c.Emscripten.clang"
  },
  "schemaVersion": "2.0.0",
  "updatedAt": "2018-04-07T22:29:21.211Z"
}