{
  "contractName": "Array32Lib",
  "abi": [
    {
      "constant": true,
      "inputs": [
        {
          "name": "self",
          "type": "uint32[] storage"
        }
      ],
      "name": "sumElements",
      "outputs": [
        {
          "name": "sum",
          "type": "uint256"
        }
      ],
      "payable": false,
      "stateMutability": "view",
      "type": "function"
    },
    {
      "constant": true,
      "inputs": [
        {
          "name": "self",
          "type": "uint32[] storage"
        }
      ],
      "name": "getMax",
      "outputs": [
        {
          "name": "maxValue",
          "type": "uint32"
        }
      ],
      "payable": false,
      "stateMutability": "view",
      "type": "function"
    },
    {
      "constant": true,
      "inputs": [
        {
          "name": "self",
          "type": "uint32[] storage"
        }
      ],
      "name": "getMin",
      "outputs": [
        {
          "name": "minValue",
          "type": "uint32"
        }
      ],
      "payable": false,
      "stateMutability": "view",
      "type": "function"
    },
    {
      "constant": true,
      "inputs": [
        {
          "name": "self",
          "type": "uint32[] storage"
        },
        {
          "name": "value",
          "type": "uint32"
        },
        {
          "name": "isSorted",
          "type": "bool"
        }
      ],
      "name": "indexOf",
      "outputs": [
        {
          "name": "found",
          "type": "bool"
        },
        {
          "name": "index",
          "type": "uint256"
        }
      ],
      "payable": false,
      "stateMutability": "view",
      "type": "function"
    },
    {
      "constant": false,
      "inputs": [
        {
          "name": "self",
          "type": "uint32[] storage"
        }
      ],
      "name": "heapSort",
      "outputs": [],
      "payable": false,
      "stateMutability": "nonpayable",
      "type": "function"
    },
    {
      "constant": false,
      "inputs": [
        {
          "name": "self",
          "type": "uint32[] storage"
        }
      ],
      "name": "uniq",
      "outputs": [
        {
          "name": "length",
          "type": "uint256"
        }
      ],
      "payable": false,
      "stateMutability": "nonpayable",
      "type": "function"
    }
  ],
  "bytecode": "0x610ce2610030600b82828239805160001a6073146000811461002057610022565bfe5b5030600052607381538281f300730000000000000000000000000000000000000000301460606040526004361061008f576000357c0100000000000000000000000000000000000000000000000000000000900463ffffffff1680631b0c09fa1461009457806328d9634f146100cc57806331bec01f146100f85780636f77715a1461011b5780639a07db0214610152578063f2f4ae811461018a575b600080fd5b6100aa60048080359060200190919050506101db565b604051808263ffffffff1663ffffffff16815260200191505060405180910390f35b6100e26004808035906020019091905050610259565b6040518082815260200191505060405180910390f35b811561010357600080fd5b61011960048080359060200190919050506102c3565b005b811561012657600080fd5b61013c60048080359060200190919050506108a2565b6040518082815260200191505060405180910390f35b6101686004808035906020019091905050610a1a565b604051808263ffffffff1663ffffffff16815260200191505060405180910390f35b6101ba600480803590602001909190803563ffffffff169060200190919080351515906020019091905050610aaa565b60405180831515151581526020018281526020019250505060405180910390f35b6000806000836060526000925060005b8454811015610251576008810460206060200154925060088106915060005b82811015610227576401000000008404935060018101905061020a565b508263ffffffff1692508284106001811461024157610245565b8394505b506001810190506101eb565b505050919050565b60008060008360605260005b84548110156102bb576008810460206060200154925060088106915060005b828110156102a15764010000000084049350600181019050610284565b508263ffffffff1692508383019350600181019050610265565b505050919050565b600080600080600080600060018880549050111561089857600188805490500396506102ee87610c24565b95508594505b6000861015156105545785945061030a86610c42565b93505b868411151561053b57600184019250849150878481548110151561032d57fe5b90600052602060002090600891828204019190066004029054906101000a900463ffffffff1663ffffffff16888381548110151561036757fe5b90600052602060002090600891828204019190066004029054906101000a900463ffffffff1663ffffffff16101561039d578391505b86831115801561041e575087838154811015156103b657fe5b90600052602060002090600891828204019190066004029054906101000a900463ffffffff1663ffffffff1688838154811015156103f057fe5b90600052602060002090600891828204019190066004029054906101000a900463ffffffff1663ffffffff16105b15610427578291505b8482141561043a57600187019350610536565b878281548110151561044857fe5b90600052602060002090600891828204019190066004029054906101000a900463ffffffff169050878581548110151561047e57fe5b90600052602060002090600891828204019190066004029054906101000a900463ffffffff1688838154811015156104b257fe5b90600052602060002090600891828204019190066004026101000a81548163ffffffff021916908363ffffffff1602179055508088868154811015156104f457fe5b90600052602060002090600891828204019190066004026101000a81548163ffffffff021916908363ffffffff16021790555081945061053385610c42565b93505b61030d565b600086141561054957610554565b6001860395506102f4565b5b600087111561089757878781548110151561056c57fe5b90600052602060002090600891828204019190066004029054906101000a900463ffffffff1690508760008154811015156105a357fe5b90600052602060002090600891828204019190066004029054906101000a900463ffffffff1688888154811015156105d757fe5b90600052602060002090600891828204019190066004026101000a81548163ffffffff021916908363ffffffff1602179055508088600081548110151561061a57fe5b90600052602060002090600891828204019190066004026101000a81548163ffffffff021916908363ffffffff160217905550600187039650600094506106616000610c42565b93505b868411151561089257600184019250849150878481548110151561068457fe5b90600052602060002090600891828204019190066004029054906101000a900463ffffffff1663ffffffff1688838154811015156106be57fe5b90600052602060002090600891828204019190066004029054906101000a900463ffffffff1663ffffffff1610156106f4578391505b8683111580156107755750878381548110151561070d57fe5b90600052602060002090600891828204019190066004029054906101000a900463ffffffff1663ffffffff16888381548110151561074757fe5b90600052602060002090600891828204019190066004029054906101000a900463ffffffff1663ffffffff16105b1561077e578291505b848214156107915760018701935061088d565b878281548110151561079f57fe5b90600052602060002090600891828204019190066004029054906101000a900463ffffffff16905087858154811015156107d557fe5b90600052602060002090600891828204019190066004029054906101000a900463ffffffff16888381548110151561080957fe5b90600052602060002090600891828204019190066004026101000a81548163ffffffff021916908363ffffffff16021790555080888681548110151561084b57fe5b90600052602060002090600891828204019190066004026101000a81548163ffffffff021916908363ffffffff16021790555081945061088a85610c42565b93505b610664565b610555565b5b5050505050505050565b60008060008060008091505b8580549050821015610a0a576108f98687848154811015156108cc57fe5b90600052602060002090600891828204019190066004029054906101000a900463ffffffff166000610aaa565b8094508195505050828211156109fd578190505b60018680549050038110156109a157856001820181548110151561092d57fe5b90600052602060002090600891828204019190066004029054906101000a900463ffffffff16868281548110151561096157fe5b90600052602060002090600891828204019190066004026101000a81548163ffffffff021916908363ffffffff160217905550808060010191505061090d565b8560018780549050038154811015156109b657fe5b90600052602060002090600891828204019190066004026101000a81549063ffffffff0219169055858054809190600190036109f29190610c57565b508180600190039250505b81806001019250506108ae565b8580549050945050505050919050565b60008060008360605260005b8454811015610aa2576008810460206060200154925060088106915060005b82811015610a625764010000000084049350600181019050610a45565b508263ffffffff1692506000811460018114610a7d57610a81565b8394505b5082841160018114610a9257610a96565b8394505b50600181019050610a26565b505050919050565b6000806000806000808615610ba3576001898054905003935060009250600091505b8382111515610b9e576002848301811515610ae357fe5b0492508763ffffffff168984815481101515610afb57fe5b90600052602060002090600891828204019190066004029054906101000a900463ffffffff1663ffffffff161415610b3f5760019550829450600184019150610b99565b8763ffffffff168984815481101515610b5457fe5b90600052602060002090600891828204019190066004029054906101000a900463ffffffff1663ffffffff161015610b9157600183019150610b98565b6001830393505b5b610acc565b610c18565b600090505b8880549050811015610c17578763ffffffff168982815481101515610bc957fe5b90600052602060002090600891828204019190066004029054906101000a900463ffffffff1663ffffffff161415610c0a5760019550809450888054905090505b8080600101915050610ba8565b5b50505050935093915050565b600080600183039050600281811515610c3957fe5b04915050919050565b60008060028302905060018101915050919050565b815481835581811511610c8c576007016008900481600701600890048360005260206000209182019101610c8b9190610c91565b5b505050565b610cb391905b80821115610caf576000816000905550600101610c97565b5090565b905600a165627a7a72305820a2e85fe1920a36afe25f121dc8846ec786219075fb0747675149049ec056280f0029",
  "source": "pragma solidity 0.4.21;\n\n/**\n * @title Array32 Library\n * @author Modular Inc, https://modular.network\n *\n * version 1.2.0\n * Copyright (c) 2017 Modular, Inc\n * The MIT License (MIT)\n * https://github.com/Modular-Network/ethereum-libraries/blob/master/LICENSE\n *\n * The Array32 Library provides a few utility functions to work with\n * storage uint32[] types in place. Modular provides smart contract services\n * and security reviews for contract deployments in addition to working on open\n * source projects in the Ethereum community. Our purpose is to test, document,\n * and deploy reusable code onto the blockchain and improve both security and\n * usability. We also educate non-profits, schools, and other community members\n * about the application of blockchain technology.\n * For further information: modular.network\n *\n * THE SOFTWARE IS PROVIDED \"AS IS\", WITHOUT WARRANTY OF ANY KIND, EXPRESS\n * OR IMPLIED, INCLUDING BUT NOT LIMITED TO THE WARRANTIES OF\n * MERCHANTABILITY, FITNESS FOR A PARTICULAR PURPOSE AND NONINFRINGEMENT.\n * IN NO EVENT SHALL THE AUTHORS OR COPYRIGHT HOLDERS BE LIABLE FOR ANY\n * CLAIM, DAMAGES OR OTHER LIABILITY, WHETHER IN AN ACTION OF CONTRACT,\n * TORT OR OTHERWISE, ARISING FROM, OUT OF OR IN CONNECTION WITH THE\n * SOFTWARE OR THE USE OR OTHER DEALINGS IN THE SOFTWARE.\n */\n\nlibrary Array32Lib {\n\n  /// @dev Sum vector\n  /// @param self Storage array containing uint256 type variables\n  /// @return sum The sum of all elements, does not check for overflow\n  function sumElements(uint32[] storage self) public view returns(uint256 sum) {\n    uint256 term;\n    uint8 remainder;\n\n    assembly {\n      mstore(0x60,self_slot)\n\n      for { let i := 0 } lt(i, sload(self_slot)) { i := add(i, 1) } {\n        term := sload(add(sha3(0x60,0x20),div(i,8)))\n\n        remainder := mod(i,8)\n\n        for { let j := 0 } lt(j, remainder) { j := add(j, 1) } {\n          term := div(term,4294967296)\n        }\n\n        term := and(0x00000000000000000000000000000000000000000000000000000000ffffffff,term)\n        sum := add(term,sum)\n\n      }\n    }\n  }\n\n  /// @dev Returns the max value in an array.\n  /// @param self Storage array containing uint256 type variables\n  /// @return maxValue The highest value in the array\n  function getMax(uint32[] storage self) public view returns(uint32 maxValue) {\n    uint256 term;\n    uint8 remainder;\n\n    assembly {\n      mstore(0x60,self_slot)\n      maxValue := 0\n\n      for { let i := 0 } lt(i, sload(self_slot)) { i := add(i, 1) } {\n        term := sload(add(sha3(0x60,0x20),div(i,8)))\n\n        remainder := mod(i,8)\n\n        for { let j := 0 } lt(j, remainder) { j := add(j, 1) } {\n          term := div(term,4294967296)\n        }\n\n        term := and(0x00000000000000000000000000000000000000000000000000000000ffffffff,term)\n        switch lt(maxValue, term)\n        case 1 {\n          maxValue := term\n        }\n      }\n    }\n  }\n\n  /// @dev Returns the minimum value in an array.\n  /// @param self Storage array containing uint256 type variables\n  /// @return minValue The highest value in the array\n  function getMin(uint32[] storage self) public view returns(uint32 minValue) {\n    uint256 term;\n    uint8 remainder;\n\n    assembly {\n      mstore(0x60,self_slot)\n\n      for { let i := 0 } lt(i, sload(self_slot)) { i := add(i, 1) } {\n        term := sload(add(sha3(0x60,0x20),div(i,8)))\n\n        remainder := mod(i,8)\n\n        for { let j := 0 } lt(j, remainder) { j := add(j, 1) } {\n          term := div(term,4294967296)\n        }\n\n        term := and(0x00000000000000000000000000000000000000000000000000000000ffffffff,term)\n\n        switch eq(i,0)\n        case 1 {\n          minValue := term\n        }\n        switch gt(minValue, term)\n        case 1 {\n          minValue := term\n        }\n      }\n    }\n  }\n\n  /// @dev Finds the index of a given value in an array\n  /// @param self Storage array containing uint256 type variables\n  /// @param value The value to search for\n  /// @param isSorted True if the array is sorted, false otherwise\n  /// @return found True if the value was found, false otherwise\n  /// @return index The index of the given value, returns 0 if found is false\n  function indexOf(uint32[] storage self, uint32 value, bool isSorted)\n           public\n           view\n           returns(bool found, uint256 index) {\n    if (isSorted) {\n        uint256 high = self.length - 1;\n        uint256 mid = 0;\n        uint256 low = 0;\n        while (low <= high) {\n          mid = (low+high)/2;\n          if (self[mid] == value) {\n            found = true;\n            index = mid;\n            low = high + 1;\n          } else if (self[mid] < value) {\n            low = mid + 1;\n          } else {\n            high = mid - 1;\n          }\n        }\n    } else {\n      for (uint256 i = 0; i<self.length; i++) {\n        if (self[i] == value) {\n          found = true;\n          index = i;\n          i = self.length;\n        }\n      }\n    }\n  }\n\n  /// @dev Utility function for heapSort\n  /// @param index The index of child node\n  /// @return pI The parent node index\n  function getParentI(uint256 index) private pure returns (uint256 pI) {\n    uint256 i = index - 1;\n    pI = i/2;\n  }\n\n  /// @dev Utility function for heapSort\n  /// @param index The index of parent node\n  /// @return lcI The index of left child\n  function getLeftChildI(uint256 index) private pure returns (uint256 lcI) {\n    uint256 i = index * 2;\n    lcI = i + 1;\n  }\n\n  /// @dev Sorts given array in place\n  /// @param self Storage array containing uint256 type variables\n  function heapSort(uint32[] storage self) public {\n    if(self.length > 1){\n      uint256 end = self.length - 1;\n      uint256 start = getParentI(end);\n      uint256 root = start;\n      uint256 lChild;\n      uint256 rChild;\n      uint256 swap;\n      uint32 temp;\n      while(start >= 0){\n        root = start;\n        lChild = getLeftChildI(start);\n        while(lChild <= end){\n          rChild = lChild + 1;\n          swap = root;\n          if(self[swap] < self[lChild])\n            swap = lChild;\n          if((rChild <= end) && (self[swap]<self[rChild]))\n            swap = rChild;\n          if(swap == root)\n            lChild = end+1;\n          else {\n            temp = self[swap];\n            self[swap] = self[root];\n            self[root] = temp;\n            root = swap;\n            lChild = getLeftChildI(root);\n          }\n        }\n        if(start == 0)\n          break;\n        else\n          start = start - 1;\n      }\n      while(end > 0){\n        temp = self[end];\n        self[end] = self[0];\n        self[0] = temp;\n        end = end - 1;\n        root = 0;\n        lChild = getLeftChildI(0);\n        while(lChild <= end){\n          rChild = lChild + 1;\n          swap = root;\n          if(self[swap] < self[lChild])\n            swap = lChild;\n          if((rChild <= end) && (self[swap]<self[rChild]))\n            swap = rChild;\n          if(swap == root)\n            lChild = end + 1;\n          else {\n            temp = self[swap];\n            self[swap] = self[root];\n            self[root] = temp;\n            root = swap;\n            lChild = getLeftChildI(root);\n          }\n        }\n      }\n    }\n  }\n\n  /// @dev Removes duplicates from a given array.\n  /// @param self Storage array containing uint256 type variables\n  function uniq(uint32[] storage self) public returns (uint256 length) {\n    bool contains;\n    uint256 index;\n\n    for (uint256 i = 0; i < self.length; i++) {\n      (contains, index) = indexOf(self, self[i], false);\n\n      if (i > index) {\n        for (uint256 j = i; j < self.length - 1; j++){\n          self[j] = self[j + 1];\n        }\n\n        delete self[self.length - 1];\n        self.length--;\n        i--;\n      }\n    }\n\n    length = self.length;\n  }\n}\n",
  "sourcePath": "/Users/hackdom/Projects/ethereum-libraries-array-utils/contracts/Array32Lib.sol",
  "compiler": {
    "name": "solc",
    "version": "0.4.21+commit.dfe3193c.Emscripten.clang"
  },
  "schemaVersion": "2.0.0",
  "updatedAt": "2018-04-07T22:29:21.218Z"
}