{
  "contractName": "Array256Lib",
  "abi": [
    {
      "constant": true,
      "inputs": [
        {
          "name": "self",
          "type": "uint256[] storage"
        }
      ],
      "name": "sumElements",
      "outputs": [
        {
          "name": "sum",
          "type": "uint256"
        }
      ],
      "payable": false,
      "stateMutability": "view",
      "type": "function"
    },
    {
      "constant": true,
      "inputs": [
        {
          "name": "self",
          "type": "uint256[] storage"
        }
      ],
      "name": "getMax",
      "outputs": [
        {
          "name": "maxValue",
          "type": "uint256"
        }
      ],
      "payable": false,
      "stateMutability": "view",
      "type": "function"
    },
    {
      "constant": true,
      "inputs": [
        {
          "name": "self",
          "type": "uint256[] storage"
        }
      ],
      "name": "getMin",
      "outputs": [
        {
          "name": "minValue",
          "type": "uint256"
        }
      ],
      "payable": false,
      "stateMutability": "view",
      "type": "function"
    },
    {
      "constant": true,
      "inputs": [
        {
          "name": "self",
          "type": "uint256[] storage"
        },
        {
          "name": "value",
          "type": "uint256"
        },
        {
          "name": "isSorted",
          "type": "bool"
        }
      ],
      "name": "indexOf",
      "outputs": [
        {
          "name": "found",
          "type": "bool"
        },
        {
          "name": "index",
          "type": "uint256"
        }
      ],
      "payable": false,
      "stateMutability": "view",
      "type": "function"
    },
    {
      "constant": false,
      "inputs": [
        {
          "name": "self",
          "type": "uint256[] storage"
        }
      ],
      "name": "heapSort",
      "outputs": [],
      "payable": false,
      "stateMutability": "nonpayable",
      "type": "function"
    },
    {
      "constant": false,
      "inputs": [
        {
          "name": "self",
          "type": "uint256[] storage"
        }
      ],
      "name": "uniq",
      "outputs": [
        {
          "name": "length",
          "type": "uint256"
        }
      ],
      "payable": false,
      "stateMutability": "nonpayable",
      "type": "function"
    }
  ],
  "bytecode": "0x610899610030600b82828239805160001a6073146000811461002057610022565bfe5b5030600052607381538281f300730000000000000000000000000000000000000000301460606040526004361061008f576000357c0100000000000000000000000000000000000000000000000000000000900463ffffffff1680630780b7c514610094578063303773f0146100cb57806366c19bcd146100ee5780639ff3faf014610139578063e3f09bfd14610165578063e80423c814610191575b600080fd5b811561009f57600080fd5b6100b560048080359060200190919050506101bd565b6040518082815260200191505060405180910390f35b81156100d657600080fd5b6100ec60048080359060200190919050506102c4565b005b6101186004808035906020019091908035906020019091908035151590602001909190505061062f565b60405180831515151581526020018281526020019250505060405180910390f35b61014f600480803590602001909190505061071e565b6040518082815260200191505060405180910390f35b61017b600480803590602001909190505061074d565b6040518082815260200191505060405180910390f35b6101a7600480803590602001909190505061079b565b6040518082815260200191505060405180910390f35b60008060008060008091505b85805490508210156102b4576101fa8687848154811015156101e757fe5b906000526020600020900154600061062f565b8094508195505050828211156102a7578190505b600186805490500381101561026457856001820181548110151561022e57fe5b906000526020600020900154868281548110151561024857fe5b906000526020600020900181905550808060010191505061020e565b85600187805490500381548110151561027957fe5b9060005260206000209001600090558580548091906001900361029c919061081c565b508180600190039250505b81806001019250506101c9565b8580549050945050505050919050565b600080600080600080600060018880549050111561062557600188805490500396506102ef876107e9565b95508594505b6000861015156104595785945061030b86610807565b93505b868411151561044057600184019250849150878481548110151561032e57fe5b906000526020600020900154888381548110151561034857fe5b906000526020600020900154101561035e578391505b86831115801561039f5750878381548110151561037757fe5b906000526020600020900154888381548110151561039157fe5b906000526020600020900154105b156103a8578291505b848214156103bb5760018701935061043b565b87828154811015156103c957fe5b906000526020600020900154905087858154811015156103e557fe5b90600052602060002090015488838154811015156103ff57fe5b90600052602060002090018190555080888681548110151561041d57fe5b90600052602060002090018190555081945061043885610807565b93505b61030e565b600086141561044e57610459565b6001860395506102f5565b5b600087111561062457878781548110151561047157fe5b906000526020600020900154905087600081548110151561048e57fe5b90600052602060002090015488888154811015156104a857fe5b906000526020600020900181905550808860008154811015156104c757fe5b906000526020600020900181905550600187039650600094506104ea6000610807565b93505b868411151561061f57600184019250849150878481548110151561050d57fe5b906000526020600020900154888381548110151561052757fe5b906000526020600020900154101561053d578391505b86831115801561057e5750878381548110151561055657fe5b906000526020600020900154888381548110151561057057fe5b906000526020600020900154105b15610587578291505b8482141561059a5760018701935061061a565b87828154811015156105a857fe5b906000526020600020900154905087858154811015156105c457fe5b90600052602060002090015488838154811015156105de57fe5b9060005260206000209001819055508088868154811015156105fc57fe5b90600052602060002090018190555081945061061785610807565b93505b6104ed565b61045a565b5b5050505050505050565b60008084606052826001811461064c57600081146106d857610715565b60018654036000805b82811115156106d057600283820104915087826020606020015410600181146106855760008114610690576106ca565b6001830191506106ca565b88836020606020015411600181146106af57600081146106ba576106c8565b6001840394506106c8565b600197508396506001850192505b505b50610655565b505050610715565b60005b86548110156107135785816020606020015414600181146106fb57610707565b60019450819350875491505b506001810190506106db565b505b50935093915050565b60008160605260005b825481101561074757818160206060200154019150600181019050610727565b50919050565b600081606052602060602054905060005b825481101561079557818160206060200154116001811461077e57610789565b816020606020015492505b5060018101905061075e565b50919050565b600081606052602060602054905060005b82548110156107e35781816020606020015411600081146107cc576107d7565b816020606020015492505b506001810190506107ac565b50919050565b6000806001830390506002818115156107fe57fe5b04915050919050565b60008060028302905060018101915050919050565b815481835581811511610843578183600052602060002091820191016108429190610848565b5b505050565b61086a91905b8082111561086657600081600090555060010161084e565b5090565b905600a165627a7a723058202c59b85e2faf240115f7b7ab5afca38f8caa86174646665c171b36b4c70d7e180029",
  "source": "pragma solidity 0.4.21;\n\n/**\n * @title Array256 Library\n * @author Modular Inc, https://modular.network\n *\n * version 1.2.0\n * Copyright (c) 2017 Modular, Inc\n * The MIT License (MIT)\n * https://github.com/Modular-Network/ethereum-libraries/blob/master/LICENSE\n *\n * The Array256 Library provides a few utility functions to work with\n * storage uint256[] types in place. Modular provides smart contract services\n * and security reviews for contract deployments in addition to working on open\n * source projects in the Ethereum community. Our purpose is to test, document,\n * and deploy reusable code onto the blockchain and improve both security and\n * usability. We also educate non-profits, schools, and other community members\n * about the application of blockchain technology.\n * For further information: Modular.network\n *\n * THE SOFTWARE IS PROVIDED \"AS IS\", WITHOUT WARRANTY OF ANY KIND, EXPRESS\n * OR IMPLIED, INCLUDING BUT NOT LIMITED TO THE WARRANTIES OF\n * MERCHANTABILITY, FITNESS FOR A PARTICULAR PURPOSE AND NONINFRINGEMENT.\n * IN NO EVENT SHALL THE AUTHORS OR COPYRIGHT HOLDERS BE LIABLE FOR ANY\n * CLAIM, DAMAGES OR OTHER LIABILITY, WHETHER IN AN ACTION OF CONTRACT,\n * TORT OR OTHERWISE, ARISING FROM, OUT OF OR IN CONNECTION WITH THE\n * SOFTWARE OR THE USE OR OTHER DEALINGS IN THE SOFTWARE.\n */\n\nlibrary Array256Lib {\n\n  /// @dev Sum vector\n  /// @param self Storage array containing uint256 type variables\n  /// @return sum The sum of all elements, does not check for overflow\n  function sumElements(uint256[] storage self) public view returns(uint256 sum) {\n    assembly {\n      mstore(0x60,self_slot)\n\n      for { let i := 0 } lt(i, sload(self_slot)) { i := add(i, 1) } {\n        sum := add(sload(add(sha3(0x60,0x20),i)),sum)\n      }\n    }\n  }\n\n  /// @dev Returns the max value in an array.\n  /// @param self Storage array containing uint256 type variables\n  /// @return maxValue The highest value in the array\n  function getMax(uint256[] storage self) public view returns(uint256 maxValue) {\n    assembly {\n      mstore(0x60,self_slot)\n      maxValue := sload(sha3(0x60,0x20))\n\n      for { let i := 0 } lt(i, sload(self_slot)) { i := add(i, 1) } {\n        switch gt(sload(add(sha3(0x60,0x20),i)), maxValue)\n        case 1 {\n          maxValue := sload(add(sha3(0x60,0x20),i))\n        }\n      }\n    }\n  }\n\n  /// @dev Returns the minimum value in an array.\n  /// @param self Storage array containing uint256 type variables\n  /// @return minValue The highest value in the array\n  function getMin(uint256[] storage self) public view returns(uint256 minValue) {\n    assembly {\n      mstore(0x60,self_slot)\n      minValue := sload(sha3(0x60,0x20))\n\n      for { let i := 0 } lt(i, sload(self_slot)) { i := add(i, 1) } {\n        switch gt(sload(add(sha3(0x60,0x20),i)), minValue)\n        case 0 {\n          minValue := sload(add(sha3(0x60,0x20),i))\n        }\n      }\n    }\n  }\n\n  /// @dev Finds the index of a given value in an array\n  /// @param self Storage array containing uint256 type variables\n  /// @param value The value to search for\n  /// @param isSorted True if the array is sorted, false otherwise\n  /// @return found True if the value was found, false otherwise\n  /// @return index The index of the given value, returns 0 if found is false\n  function indexOf(uint256[] storage self, uint256 value, bool isSorted)\n           public\n           view\n           returns(bool found, uint256 index) {\n    assembly{\n      mstore(0x60,self_slot)\n      switch isSorted\n      case 1 {\n        let high := sub(sload(self_slot),1)\n        let mid := 0\n        let low := 0\n        for { } iszero(gt(low, high)) { } {\n          mid := div(add(low,high),2)\n\n          switch lt(sload(add(sha3(0x60,0x20),mid)),value)\n          case 1 {\n             low := add(mid,1)\n          }\n          case 0 {\n            switch gt(sload(add(sha3(0x60,0x20),mid)),value)\n            case 1 {\n              high := sub(mid,1)\n            }\n            case 0 {\n              found := 1\n              index := mid\n              low := add(high,1)\n            }\n          }\n        }\n      }\n      case 0 {\n        for { let low := 0 } lt(low, sload(self_slot)) { low := add(low, 1) } {\n          switch eq(sload(add(sha3(0x60,0x20),low)), value)\n          case 1 {\n            found := 1\n            index := low\n            low := sload(self_slot)\n          }\n        }\n      }\n    }\n  }\n\n  /// @dev Utility function for heapSort\n  /// @param index The index of child node\n  /// @return pI The parent node index\n  function getParentI(uint256 index) private pure returns (uint256 pI) {\n    uint256 i = index - 1;\n    pI = i/2;\n  }\n\n  /// @dev Utility function for heapSort\n  /// @param index The index of parent node\n  /// @return lcI The index of left child\n  function getLeftChildI(uint256 index) private pure returns (uint256 lcI) {\n    uint256 i = index * 2;\n    lcI = i + 1;\n  }\n\n  /// @dev Sorts given array in place\n  /// @param self Storage array containing uint256 type variables\n  function heapSort(uint256[] storage self) public {\n    if(self.length > 1){\n      uint256 end = self.length - 1;\n      uint256 start = getParentI(end);\n      uint256 root = start;\n      uint256 lChild;\n      uint256 rChild;\n      uint256 swap;\n      uint256 temp;\n      while(start >= 0){\n        root = start;\n        lChild = getLeftChildI(start);\n        while(lChild <= end){\n          rChild = lChild + 1;\n          swap = root;\n          if(self[swap] < self[lChild])\n            swap = lChild;\n          if((rChild <= end) && (self[swap]<self[rChild]))\n            swap = rChild;\n          if(swap == root)\n            lChild = end+1;\n          else {\n            temp = self[swap];\n            self[swap] = self[root];\n            self[root] = temp;\n            root = swap;\n            lChild = getLeftChildI(root);\n          }\n        }\n        if(start == 0)\n          break;\n        else\n          start = start - 1;\n      }\n      while(end > 0){\n        temp = self[end];\n        self[end] = self[0];\n        self[0] = temp;\n        end = end - 1;\n        root = 0;\n        lChild = getLeftChildI(0);\n        while(lChild <= end){\n          rChild = lChild + 1;\n          swap = root;\n          if(self[swap] < self[lChild])\n            swap = lChild;\n          if((rChild <= end) && (self[swap]<self[rChild]))\n            swap = rChild;\n          if(swap == root)\n            lChild = end + 1;\n          else {\n            temp = self[swap];\n            self[swap] = self[root];\n            self[root] = temp;\n            root = swap;\n            lChild = getLeftChildI(root);\n          }\n        }\n      }\n    }\n  }\n\n  /// @dev Removes duplicates from a given array.\n  /// @param self Storage array containing uint256 type variables\n  function uniq(uint256[] storage self) public returns (uint256 length) {\n    bool contains;\n    uint256 index;\n\n    for (uint256 i = 0; i < self.length; i++) {\n      (contains, index) = indexOf(self, self[i], false);\n\n      if (i > index) {\n        for (uint256 j = i; j < self.length - 1; j++){\n          self[j] = self[j + 1];\n        }\n\n        delete self[self.length - 1];\n        self.length--;\n        i--;\n      }\n    }\n\n    length = self.length;\n  }\n}\n",
  "sourcePath": "/Users/hackdom/Projects/ethereum-libraries-array-utils/contracts/Array256Lib.sol",
  "compiler": {
    "name": "solc",
    "version": "0.4.21+commit.dfe3193c.Emscripten.clang"
  },
  "schemaVersion": "2.0.0",
  "updatedAt": "2018-04-07T22:29:21.216Z"
}